S00B000072616D2E73726563D9
S31540000000930000001301000093010000130200005A
S315400000109302000013030000930300001304000042
S31540000020930400001305000093050000130600002A
S315400000309306000013070000930700001308000012
S31540000040930800001309000093090000130A0000FA
S31540000050930A0000130B0000930B0000130C0000E2
S31540000060930C0000130D0000930D0000130E0000CA
S31540000070930E0000130F0000930F000037010F404E
S3154000008013010100411102C002C202C402C66F0040
S315400000920000000000000000000000000000000018
S315400000A20000000000000000000000000000000008
S315400000B200000000000000000000000000000000F8
S315400000C200000000000000000000000000000000E8
S3154000100097010600938101AA1385018C17160600E5
S31540001010130606B1098E8145EF80906F1785000053
S3154000102013058586EF70C03CEF80005002454C00AA
S315400010300146C1286F708042828037050640B70757
S3154000104006401307C5299387C729638BE7003703F3
S31540001050000013030300630503001305C52902833B
S315400010608280B7070640370506409385C729930710
S31540001070C5299D8D898593D7F501BE95858591C9ED
S315400010803703000013030300630503001305C52956
S315400010900283828003C781BC05EB411122C406C688
S315400010A03E84613FB78700409387873099C737C5ED
S315400010B0044013050500EF70202585472384F1BCC5
S315400010C0B2402244410182808280B78700409387A4
S315400010D0872389CF37C5044041119385C1BC130589
S315400010E0050006C6EF704015B24041019DBF011193
S315400010F022CE00102326A4FE81473E857244056118
S315400011008280597186D6A2D4A6D2CAD08018B74753
S31540001110044013850783EF80F077B74704409385F3
S315400011200784138541E9EFF091742A87B717024087
S31540001130938507D23A85EFF051201145EFE00163E0
S31540001140AA87BE842685EFC06142232694FE832764
S31540001150C4FE9C43A1079C430325C4FE82970325F6
S31540001160C4FEEFC0E14E8327C4FE89CB8327C4FE6D
S315400011709C4391079C430325C4FE82971145EFE0AB
S31540001180E15EAA87BE842685EFC0E14F232694FE02
S315400011908327C4FE9C43A1079C430325C4FE829734
S315400011A00325C4FEEFC0C14A8327C4FE89CB8327EB
S315400011B0C4FE9C4391079C430325C4FE8297930734
S315400011C084F93E85EFC0215DB7B7C9489387473E4E
S315400011D02322F4FA130744FA930784F9BA853E8525
S315400011E0EFC0A161B7A710799387A7B62324F4FA75
S315400011F0130784FA930784F9BA853E85EFC0E15F09
S31540001200B7571516938797032326F4FA1307C4FA9C
S31540001210930784F9BA853E85EFC0215EB76763A31D
S315400012209387A7C92328F4FA130704FB930784F985
S31540001230BA853E85EFC0615CB7472F8D938727708F
S31540001240232AF4FA130744FB930784F9BA853E85AB
S31540001250EFC0A15AB737D2389387E72A232CF4FA3E
S31540001260130784FB930784F9BA853E85EFC0E1589E
S31540001270B7579293938777A1232EF4FA1307C4FBAB
S31540001280930784F9BA853E85EFC02157B797B86270
S315400012909387C75C2320F4FC130704FC930784F967
S315400012A0BA853E85EFC06155B7D73061938797457C
S315400012B02322F4FC130744FC930784F9BA853E8540
S315400012C0EFC0A153B7977C83938747B42324F4FC9C
S315400012D0130784FC930784F9BA853E85EFC0E15134
S315400012E0B7B7593D9387E74F2326F4FC1307C4FC51
S315400012F0930784F9BA853E85EFC02150B717494414
S315400013009387874D2328F4FC130704FD930784F93C
S31540001310BA853E85EFC0614EB7C73D3A93870766AB
S31540001320232AF4FC130744FD930784F9BA853E85C6
S31540001330EFC0A14CB727A1E59387F71E232CF4FCF9
S31540001340130784FD930784F9BA853E85EFC0E14AC9
S31540001350B78700FF9387D766232EF4FC1307C4FD97
S31540001360930784F9BA853E85EFC02149B7C743B88C
S31540001370938797872320F4FE130704FE930784F987
S31540001380BA853E85EFC06147930784F93E85EFC035
S315400013906149AA84930784F93E85EFC0214BAA8709
S315400013A0BE852685EFC0414D930784F92324F4FE7C
S315400013B0032584FEEFC00147AA87232AF4F80325B4
S315400013C084FEEFC0A148AA872328F4F8130704F93E
S315400013D0930744F9BA853E85EFC0E14CAA87B1C769
S315400013E0930744F93E85EFC04152AA879C43232286
S315400013F0F4FEB7D7014093854754138541E9EFF092
S315400014000174AA87832544FE3E85EFF0B1582A87AA
S31540001410B7170240938507D23A85EFF001729307DA
S3154000142044F93E85EFC0014C55B7B7470440938514
S315400014304785138541E9EFF091432A87B717024064
S31540001440938507D23A85EFF0416F8144930784F93B
S315400014503E85EFC02136A6872DA82A899145268547
S31540001460EFD09176CA873E85EF6040022A89914542
S315400014702685EFD07175CA873E85EF602001AA8424
S31540001480930784F93E85EFC0E132A6873E85EF504B
S31540001490F07F3E85B6502654965406596561828043
S315400014A0011106CE22CC00102326A4FE2324B4FE2E
S315400014B00327C4FE85476316F702032784FEC167E8
S315400014C0FD176310F702138541BEEFE0D133138653
S315400014D04187938541BEB707024013850713EF60E6
S315400014E0D0760100F240624405618280411106C611
S315400014F022C40008C1679385F7FF05455537B240BA
S31540001500224441018280000009A0011122CE001030
S31540001510B74704409387878D2326F4FE31A8832757
S31540001520C4FE138717002326E4FE03C70700B70748
S3154000153000809387071098C38327C4FE83C707009C
S31540001540F9FF0290011122CE00102326A4FE232487
S31540001550B4FE2322C4FEFD573E8572440561828057
S31540001560797122D60018232EA4FC232CB4FC232AFE
S31540001570C4FC032784FD832744FDBA972326F4FE43
S3154000158091A0B7070080938747109843B707000498
S31540001590F98F8DCB832784FD13871700232CE4FC1A
S315400015A083C70700A305F4FE8347B4FE93F7F70FFE
S315400015B0E2072322F4FEB70700809387071003272C
S315400015C044FE98C3032784FD8327C4FEE31BF7FA32
S315400015D0832744FD3E85325445618280011122CEE7
S315400015E000102326A4FE81473E8572440561828011
S315400015F0011106CE22CC00102326A4FE2324B4FEDD
S31540001600EF6070652A8789471CC3FD573E85F240C7
S31540001610624405618280011122CE00102326A4FE79
S3154000162083A781BE99E7B72706401387C7B123A48E
S31540001630E1BE03A781BE8327C4FE3E9723A4E1BE35
S3154000164003A781BE8327C4FEB307F7403E85724495
S3154000165005618280011122CE00102326A4FE02904D
S3154000166000009307C004630DF50063E6A70011155B
S31540001670133555008280130525FB133525008280DE
S315400016800545828058491C4D635CF7001C499316FA
S3154000169047000507B69723A2070058C93E858280B2
S315400016A08147EDBF9387F5FF1307E0046362F704B4
S315400016B0376704408A0713070787BA979C43828790
S315400016C015C69DC6011132C406CE36C62EC25D3F32
S315400016D0014601C922469245B24610C50CC154C5C1
S315400016E02A86F24032850561828069FE3285828093
S315400016F00146EDBF011106CE2EC632C4613719C967
S31540001700B24581CD224611CA232205002320050079
S315400017100CC550C5F240056182800145E5BF011107
S3154000172006CE2EC6853711C5B245930770021CC139
S315400017300CC5F240056182805C45930620052E86E5
S3154000174003C70700630CD7009306F0046310D70263
S315400017505855930500020D0758D529A05855FD4503
S31540001760090758D585075CC581462DBF2E858280E1
S315400017702A8799CD1C515451014563DCD700544FFB
S31540001780139627008507B2968CC21CD305458280E6
S315400017900145828001114EC6B769044022CC26CA53
S315400017A04AC852C456C206CEAA842E893284130A27
S315400017B0E0049389C99A954A15CC1C40FD17636B82
S315400017C0FA028A07CE979C4382879C4085079CC035
S315400017D01044CA8526857D3F4044F9BF1C449C433E
S315400017E0E39857FF8327090085072320F900CDB7E3
S315400017F00044D9B7F2406244D2444249B249224AEF
S31540001800924A0561828083250510411122C406C68D
S31540001810B307B50023800700832785100326C5102C
S315400018202A8482978327841223200410B240850796
S315400018302324F4122244410182800327051001111A
S3154000184022CC06CE9307F00F2A846315F7002EC6E6
S315400018505D3FB24583270410138717002320E41009
S31540001860A2972380B7002302B410F2406244056178
S315400018708280411122C426C24AC006C62A892E84C5
S31540001880B384C50063189400B2402244924402498E
S3154000189041018280834504004A850504793FDDB7CE
S315400018A0AA879306F002014591C798436314D7006F
S315400018B0984711E382800505DC47FDB7011122CC2C
S315400018C02A842E8506CE2EC6EFA0E0082A862285DB
S315400018D06244B245F240056169BF79712E86B765AB
S315400018E0044022D4938585512A84480006D6EF8049
S315400018F030704C002285D937B250225445618280DF
S315400019001C4101114AC852C406CE22CC26CA4EC634
S3154000191056C283C407001307E0062A89014A639822
S31540001920E4001387170018C183C41700054AB70996
S3154000193000800144A54A93C9F9FF138504FD9377B6
S31540001940F50F63F0FA0263040A00330480402285EF
S31540001950F2406244D2444249B249224A924A05611F
S315400019608280A9453385A940EF40803B634285028A
S31540001970931724003E948327090006042694138770
S3154000198017002320E900130404FD83C4170075B72C
S315400019907D5475BF411122C426C206C6AA84DD31D4
S315400019A02A8401C9930710041CC11385C400893FCA
S315400019B008C42285B24022449244410182805C455B
S315400019C0411122C406C683C707001307F0052A84BF
S315400019D0638AE7021307E0066397E7007D55B24046
S315400019E02244410182803105213F0505E34805FE39
S315400019F05C441307F00583C60700E391E6FE8507BE
S31540001A005CC4F1BF0145EDB75C451307400583C68D
S31540001A1007006384E60001458280411122C426C244
S31540001A2006C685075CC52A84593FAA84014563C812
S31540001A3004002285813901C595471CC104C5B240C1
S31540001A402244924441018280411122C42A843105B4
S31540001A5006C626C24AC06D35635EA00844445C4053
S31540001A602A890145858F63CD27071844B38724010A
S31540001A705CC4118B09CB83C60700130740026394ED
S31540001A80E60085075CC4A54763D32707B7650440CE
S31540001A9021469385C5512685EF80203529E983C7A0
S31540001AA084001307E002638AE7001307F0056386A4
S31540001AB0E70013074002639CE70203C794009307BD
S31540001AC0E0046316F7025C54B76504405546D907EF
S31540001AD03389274123262403938585522285193944
S31540001AE008D4B240224492440249410182804A8647
S31540001AF0A685EDB70145F5B7011126CA045522CC96
S31540001B004AC806CE2A842E86130920045C4403C79D
S31540001B100700630A270104D4F2406244D244424992
S31540001B2032850561828085075CC4228532C6293F9D
S31540001B303246AA869305B0042285AD362A86F9B781
S31540001B40411122C406C626C22A8485E15C4503C7E4
S31540001B50070019E70145B240224492444101828080
S31540001B601387170058C583C50700930780061305DA
S31540001B70C4006384F50293076007E39DF5FC930474
S31540001B80C4002685B53B5C441307F00583C60700B1
S31540001B90E392E6FC85075CC426859D335C441307C7
S31540001BA0F00583C60700E397E6FA85075CC405455A
S31540001BB05DB70347050093072007630FF7029306B7
S31540001BC0600585476308D7029306B0046304D702CD
S31540001BD0930640048147631FD7000345150013074A
S31540001BE0F00485479376F50D6386E600130595F870
S31540001BF0933725003E8582808547EDBF1C411307FC
S31540001C003006014583C617006391E60283C7070085
S31540001C10854605451387D7F91377F70F63F7E6002F
S31540001C209387E7F813B52700828082805C45930648
S31540001C30F00503C707006305D70085473E858280C8
S31540001C40411126C206C622C49386170054C583C6D0
S31540001C50170085446395E60089075CC589442A8454
S31540001C60310579398147634305028947639FF4000B
S31540001C70A54763DCA70058449306F0058147034611
S31540001C8007006315D600050758C48547B24022446D
S31540001C9092443E85410182809307F00211E18280A1
S31540001CA01841631AF7006357B000FD154845FDB764
S31540001CB008458280F5DD014582800111584226CAD9
S31540001CC004469387150022CC4AC84EC606CEBA971C
S31540001CD0AA892E89328463F3F40458460DE791E0CD
S31540001CE0894463E9F4020840A685EF80A03B0DE5F0
S31540001CF00840EF7030368547232004002322040035
S31540001D00232404005CC4F2406244D2444249B249AE
S31540001D10056182808604F1B708C004C45C44E5F7D7
S31540001D205C4008404A86CE853E95EF80600E1C405A
S31540001D305840CA97BA97238007005C403E992322B1
S31540001D402401D1B78327051191E78547232CF51048
S31540001D5001458280DC438C41C84763C305002DBFE3
S31540001D608280797122D426D24AD04ECE52CC56CADF
S31540001D705AC85EC662C466C206D6AA842E841309B1
S31540001D80C00293091004130A5004930A7004054BC9
S31540001D90930B0004130C1003930C20030DC01C403E
S31540001DA0638F2701636EF9021D476383E704636A05
S31540001DB0F70015476389E7046363F70089EF014538
S31540001DC0A9A86147E38DE7FE13077002E389E7FEA2
S31540001DD02147638FE7000C442685613711C935A832
S31540001DE063EAF900E3FD77FDE38B87FDE39597FF13
S31540001DF040446DB7E3E147FFE3F3FAFC938767FBA3
S31540001E00E36BFBFC6DBF930584002685253F45D9D2
S31540001E1018419307F002E314F7FAB2502254925451
S31540001E200259F249624AD24A424BB24B224C924C38
S31540001E30456182805C45011106CE22CC26CA4AC83D
S31540001E404EC652C483C60700130730056390E60E9C
S31540001E501387170058C503C71700630D0714138768
S31540001E60270058C503C717009307F0056302F71408
S31540001E70930707FD93F7F70F254681466377F610DC
S31540001E809307F7FB93F7F70F65466370F6101C450B
S31540001E90A18B3339F00089EF81CD5C45854683C7F8
S31540001EA007009387D7FB93F7F70F63E3F6002E8976
S31540001EB037640440130404D89307440C8346040053
S31540001EC06391E61083294401AA84638E0900032A9C
S31540001ED08401EFF02FFB19C5E1471CC123243501CE
S31540001EE02326450188D46309090C8329C4000329A4
S31540001EF00401DC542685CA97DCD4EFF0AFF82A8477
S31540001F0019C5E1471CC12324350123262501DC449C
S31540001F1003C70700930720046310F706A2852685AA
S31540001F20E13E2A84AA852685A13039E50144A9A047
S31540001F300147BE86930707FD93F7F70F63ECF50459
S31540001F4093973600B6978A07BA97938707FDE3EFCC
S31540001F50D7FC584583460700E1DE9306170054C573
S31540001F6003470700E317C7FC85071851E3F0E7FC72
S31540001F70584D8A07BA9780432285F2406244D2443C
S31540001F804249B249224A05618280A5456548130601
S31540001F90F0054DB79307F7FB93F7F70FE368F8F8AB
S31540001FA093973600B6978A07BA97938797FC45B7B3
S31540001FB0814765BF0147E1BD832944000329840069
S31540001FC00DBF7104E31CF4EE95B75C451307C004DE
S31540001FD083C60700638BE600014582800145B24017
S31540001FE022449244024941018280411122C406C6DC
S31540001FF026C24AC01387170058C503C71700930661
S31540002000F0052A846305D7069307A0056303F70600
S315400020105123AA8461D51841930770026319F700CA
S3154000202018451C4B89C75C545843998F5CD45C4413
S315400020301307E0061309C00383C607006396E6004C
S3154000204085075CC41309D0034C441307500450441D
S31540002050834706006397E7040D8E2285EFF08FE9EC
S31540002060AA862686CA852285EFF0CFE30DA089078A
S315400020705CC55C441307A005014583C60700639809
S31540002080E60085075CC481452285EF10204B5C4401
S315400020901307500483C60700E392E6F485075CC441
S315400020A03DBF8DDF050650C45DB75C459306C00451
S315400020B003C707006313D70009BF930640056313A0
S315400020C0D70099B2797122D406D626D24AD04ECEBE
S315400020D052CC130630072A84631AC70603C7170073
S315400020E0930620076318D70489075CC56521AA842F
S315400020F02285EF00906B5C44AA8603C707009307CE
S315400021009004631DF7002AC62285EF001027324649
S31540002110AA8691452285EFF0EFD8AA862686854580
S3154000212022852254B25092540259F249624A45617C
S315400021306FF04FD7930600076316D71089075CC523
S31540002140AD3781462A869305A004D9BF130660069B
S31540002150631DC70403C61700130700076314E60E82
S315400021601387270058C503C727006316D7028D0774
S315400021705CC581442285EFF0EFD02A8601C5994798
S315400021801CC104C5B250225492540259F249624AC3
S3154000219032854561828025309347F5FF13971700B6
S315400021A09304150061FB0146F1BF930607FD93F6C4
S315400021B0F60F2546637ED6009306F006631ED702C9
S315400021C083C617001307E006639EE60689075CC5CB
S315400021D02285EF00905D2A8679D55C4403C70700C7
S315400021E093079004E310F7FA2AC62285EF00F01809
S315400021F0AA86324691452DB7930690066306D700C8
S31540002200930640076310D70483C617009307C0069A
S31540002210639AF6029307400701466315F700228545
S31540002220952E2A865C4432C603C717002DDF8907E0
S31540002230930550045CC42285DD24AA863246930564
S315400022400003F9BD2285EF003015AA8929DD032A4E
S31540002250050093071003631BFA021C45B77504403B
S315400022609385C5A584439C4726851387E7FF5C5421
S31540002270BA975CD4EF80E07283A7890029E922856A
S31540002280112EAA864E869305600359BD93072003F7
S31540002290630BFA0A93073003E317FAF081440149C6
S315400022A05C441307F00583C607006395E60E850771
S315400022B05CC49305500422859D24E30409FCAA8648
S315400022C02A86930580032285EFF0CFBD5DBF03A923
S315400022D0C70005476301E90863492701E31509EC8F
S315400022E081464E869305500325BD09476303E90C95
S315400022F08D47E31AF9EAE38804EAB7650440938513
S3154000230005552685EF80E069631B05142285713BE0
S31540002310AA842285593B2A892285413BE30505E863
S31540002320AA864A869305B0032285EFF0AFB7AA8600
S3154000233026869305A0032285EFF0CFB6AA864E8661
S3154000234093059003F1BB1C4505476383E71AE34CAD
S31540002350F7E4D9D789BD638D041883C704001307F2
S3154000236000076386E7001307D006639FE70003C7AD
S315400023701400631BF7005C441307F00583C607008F
S315400023806395E60085075CC40149930730036315EE
S31540002390FA0039B763830416B7650440938505543C
S315400023A02685EF800060631A05142285EF00406E93
S315400023B029B7E38A04DE3E8591300DCD2285D92AA0
S315400023C0B76504402A89938545542685EF80605D2C
S315400023D015ED93055004228599222A86B2869305E7
S315400023E080034A862285EFF0EFABAA864E86930598
S315400023F070033DB303C70400930760062285631547
S31540002400F700EF0060796DBF4D315DBFB7650440A1
S31540002410938585542685EF80C05809C9B765044021
S315400024209385C5542685EF80C0571DE52285EF006C
S31540002430D0375C442A8603C7070093079004E31FFE
S31540002440F7F82AC62285EF0040733246AA869145A0
S315400024502285EFF02FA551B722858139BDBF83C7AD
S315400024600400130760066396E7002285EF00C072FA
S3154000247045B51307E006E398E7D283C71400130770
S3154000248070076386E70013071006E39EE7D09305BF
S31540002490F00522856920AA842285ED285C449306AE
S315400024A050042A8903C707006316D70085075CC412
S315400024B00145BDB593060007631FD70083C61700C5
S315400024C013079006E391E6CE89075CC49305500452
S315400024D02285B120B1B593069006E316D7CC03C743
S315400024E017009307C006E310F7CC22857D3E0DBD4D
S315400024F0930730030149E303FADA22857D3675BB3B
S31540002500411122C426C206C6045985471CD92A84CD
S31540002510693EB24004D822449244410182805C45DF
S31540002520011122CC06CE26CA4AC803C7070002C6F6
S315400025302A84631FB7006244F240D2444249850769
S315400025405CC5814601469305E00205616FF08F95B3
S31540002550AE841309C100228565372A8601E9014503
S31540002560F2406244D24442490561828081469305E5
S31540002570E0022285EFF00F932320A9006DD15C4441
S315400025801309C50003C70700E31797FC85075CC41A
S315400025903245F9B7397126DA444522DC2A84268544
S315400025A006DE4AD84ED652D456D2EFF08FE035C129
S315400025B001466C082285EF006079AA8419E9014535
S315400025C0F2506254D2544259B259225A925A216117
S315400025D082805C44228503C7070093076004631822
S315400025E0F702EF00F01688C09C40F1DB9843854621
S315400025F0051763E8E600F246984794C79C403ECEEE
S3154000260098C0F2452285EFF0AF9629ED4DBF593778
S31540002610D9BF83C504001307A004938705FD93F72C
S31540002620F70FE36EF7F8376704408A07130787AE5C
S31540002630BA979C4382879385F5F993972500AE9781
S31540002640B76504408A07938545E4BE952285EFF039
S315400026500F8D18455C542ACE5843BA975CD45C44D7
S3154000266085075CC47245A9BF850444C42285EFF042
S31540002670AFBD81462A86930580022285EFF08F8280
S3154000268021A02285EF00D00C2ACEA5BF2285EF00DF
S31540002690303BDDBF938514004CC483C71400130739
S315400026A0F0056380E704938707FD93F7F70F254707
S315400026B06366F7025C441386170050C483C717004D
S315400026C0938707FD93F7F70FE376F7FE0D8E228586
S315400026D0EFF04F822A8619E501457DB722850D35F3
S315400026E0D5BF01465C4432C61307F00583C60700D2
S315400026F0E394E6FE85075CC42285693DAA86324698
S315400027009305A0029DBF850444C42285613569D5E1
S315400027102AC622854135AA8661D132469305B00242
S31540002720A9BF2285EFF04FAE44442ACE93079004CA
S3154000273003C90400AA85E316F9EC5C5889EF2285A3
S31540002740EFF00F83E30D05E67246228532C635214A
S31540002750AA8632463DA02285832A4401032A0402E2
S315400027608329C40219295C4483C70700639D270156
S31540002770F2452AC62285EFE0BFFFB246E30205E4F2
S3154000278072469145DDBD44C4232A540123204403A7
S3154000279023263403BDB583C71400A546138707FD1A
S315400027A01377F70F63FDE6001307F0056389E7002B
S315400027B09387F7FB93F7F70F65476360F702814509
S315400027C02285EFF02FE75C442ACE2A8603C707000E
S315400027D093079004E318F7E88DBF2285EF00502653
S315400027E02ACEE30005E21841E147E31CF7E09DBD30
S315400027F0850444C42285793B81462A869305400256
S31540002800ADBD850444C42285713381462A8693052D
S315400028102002A5B5850444C42285AD3B81462A865F
S315400028209305300299BD850444C42285A53381466B
S315400028302A869305500291B5850444C42285993B66
S3154000284081462A86930560020DBD850444C42285CF
S31540002850EFF08F9F5C442ACE03C70700930790048E
S31540002860631CF7002AC62285092E3246AA86914560
S315400028702285EFE03FE32ACE2285293BF2462A868F
S3154000288093051002DDBB938714005CC483C7140014
S31540002890E38707D2938724005CC483C714001307D9
S315400028A060066387E70E6362F706130710066387C1
S315400028B0E70C636CF702130760046388E71013079D
S315400028C04005E39EE7CE228525392A868146930533
S315400028D020042285EFE01FDD2ACEE30405D25C44C6
S315400028E003C707003DEB02CE29BB13074006638FA3
S315400028F0E70A6362F70C13073006E392E7CCB76545
S31540002900044039469385C555BDA813070007638023
S31540002910E7066363F702130790066383E70A130724
S31540002920E0066382E71613078006E39AE7C8B765B1
S315400029300440938585088DA013074007E385E7F893
S3154000294013076007638AE70E13073007E399E7C664
S31540002950B76504409385C50981A01387170058C4FD
S3154000296003C7070093075004E31FF7F659B92285BA
S31540002970153181462A869305A00401B3B765044004
S315400029801146938545552285EFE0DFD62ACED9B943
S31540002990B76504409385C5042285EFE05FD82ACE0B
S315400029A018455C545843BA975CD46DB9B765044032
S315400029B093850506D5B7B765044093854507E9BFB6
S315400029C0B76504409385050BC1BF2285EFE09FCBD9
S315400029D02ACE9307C0021CC15C4483C70700938775
S315400029E007FD93F7F70F13B7A7002316E500254712
S315400029F06366F7001305C400EFE09FF02285F244BA
S31540002A00513EF24788C49C47E38B07BA1305C4007E
S31540002A10EFE01FEF584481478346070091C693076E
S31540002A2017005CC48347070072479387D7F893B76C
S31540002A3017002317F7003DB103C724009307F0059D
S31540002A40631FF7028D0444C422855D3C2A8615C562
S31540002A505C442AC61307F00583C607000146639EF9
S31540002A60E60085075CC4228535363246AA8693053C
S31540002A70D0022285EFE01FC32A8632CE59B6228580
S31540002A80EFE05FF1E1B7B76504409385450C29B7A0
S31540002A905C45797122D452CC06D626D24AD04ECE47
S31540002AA056CA5AC883C60700130750042A84032A05
S31540002AB085026393E6022254B25092540259F24977
S31540002AC0624AD24A424B85075CC581460146930518
S31540002AD0F00245616FE01FBD02C61309C1009309AC
S31540002AE0C004930A800593045004054B5844834719
S31540002AF00700638D370763EBF900938777FB93F7FE
S31540002B00F70F6379FB06228571340DA8E39D57FFC5
S31540002B10050758C42285ED325C4403C70700630DA0
S31540002B2097000145B250225492540259F249624AE2
S31540002B30D24A424B4561828085075CC47DD12A8654
S31540002B4081469305F0022285EFE0DFB52320A900F8
S31540002B5069D95C441309C50003C70700E31897F811
S31540002B6085075CC42324440332456DBF2285EFF0BC
S31540002B70CFC5E9B722851120D1B7584505468347C9
S31540002B800700938777FB93F7F70F6365F600050712
S31540002B9058C5FDBD014582805C45411122C406C62B
S31540002BA026C24AC003C707002A84814611C7138735
S31540002BB0170058C583C607005C4403C7070051C3C6
S31540002BC01387170058C403C707009307600763902D
S31540002BD0F604130907FD1376F90FA54763E4C70604
S31540002BE02285EFE07FE6AA842285EFE0BFA945C9AA
S31540002BF0DDC493072003232205001CC1232425019D
S31540002C0044C5B2402244924402494101828013069F
S31540002C1030066399C6026317F7021C58445822854A
S31540002C2093B717005CD8BD325C582A868146930517
S31540002C30400399E3930530032285EFE0BFA644D8CD
S31540002C40C9B701473765044093053004014613056B
S31540002C50850D3388C5409357F801C2978587B2974B
S31540002C6093944700AA9483A8040003C80800631AF3
S31540002C70D80203C81800631D07012285EFE09FA014
S31540002C8049D1930710031CC104C5A5BFBE85D1B762
S31540002C906365070113861700AE87E319F6FE014503
S31540002CA08DB7E3EC06FFFDB7797122D426D24AD020
S31540002CB04ECE52CC56CA06D62A8402C664001309A2
S31540002CC050049309E002130A2005930AF00458447D
S31540002CD083470700B1C76385270563833705638448
S31540002CE047016396570183471700638B2703228565
S31540002CF055302A8619E90145B25022549254025958
S31540002D00F249624AD24A4561828081469305E00291
S31540002D102285EFE03F9988C079DD9304C50045BF21
S31540002D20324571D95C45E9FB1C4513077002944353
S31540002D30E394E6FC9847A547144BE39FF6FA5C54A8
S31540002D405843998F5CD4232405007DB758455D715F
S31540002D50A2C4CAC05ED686C6A6C24EDE52DC56DACB
S31540002D605AD862D466D26AD06ECEAA8B2E84328965
S31540002D70034707003DC2F949754AF14AA284130C3C
S31540002D806005930CB004130D8007930DF006130BEA
S31540002D90F00483A6CB003AC6368536C4EFE07FE121
S31540002DA0A24632471DED6311090A93076004631D6D
S31540002DB0F7086947F5466D46F945654571486385A7
S31540002DC0840800401C40638AE712638AC7126394F2
S31540002DD0A700232004012104DDB7ED49694AE54AED
S31540002DE071BF1386160023A6CB00930720076317EF
S31540002DF0F70203A7CB02D685250723A6EB0201459A
S31540002E00AA8601465E85EFE0FF8988C00DCD03A7FF
S31540002E10CB009304850003470700A5BF63198701CC
S31540002E2003A7CB02D285250723A6EB02C9BF6319A8
S31540002E30970103A7CB02CE85190723A6EB02C1B79C
S31540002E4003C7160015E38144B64026442685064945
S31540002E509644F259625AD25A425BB25B225C925C09
S31540002E60025DF24D616182801387260023A6EB0046
S31540002E7003C71600631BA70103A7CB0201459305B1
S31540002E80C004450723A6EB02A5BF6304B701631C34
S31540002E90670383A6CB020145A50623A6DB02631181
S31540002EA067035E85EFF0CFE559DD03A7CB009306B8
S31540002EB0500403460700E318D6F8050723A6EB009F
S31540002EC09305E00435BF93067007E31ED7F603A7C4
S31540002ED0CB025E85190723A6EB02F9332DD503A74E
S31540002EE0CB009306500403460700E31ED6F40507BD
S31540002EF023A6EB009305F00421B714C0E9BD0CC02E
S31540002F00D9BD5C45011122CC06CE83C60700130706
S31540002F10A0042A84639EE60085075CC52285EFF0FF
S31540002F206FE72A8601E9F2406244014505618280E5
S31540002F30F5F50146228532C6853BAA866DD52285A2
S31540002F4062443246F2409305900205616FE08FF588
S31540002F505C451307600483C607006389E6000145A4
S31540002F6082800145B240224441018280411106C619
S31540002F7022C41387170058C583C617001307900548
S31540002F806394E60089075CC585452A849D3FAA85EA
S31540002F902285EFE06FFA5C441307500483C60700AE
S31540002FA0E391E6FC85075CC475BF5C45011126CA02
S31540002FB006CE22CC4AC84EC603C707002546AA8479
S31540002FC0930607FD93F6F60F6366D602EFE0DFA79A
S31540002FD02A84DC4403C7070093072004631EF718BE
S31540002FE0A2856244F2404249B2492685D2440561EF
S31540002FF06FE09FB09306F7F993F6F60F6546636068
S31540003000D6069306F006631AD70083C61700130741
S31540003010E0066394E60089075CC52685B53E2A84AA
S3154000302041C1184193071003E315F7FA1845DC54DC
S31540003030B765044014479D070843B697DCD493858B
S31540003040C556EF70101651F52685EFE0FF9FAA860C
S315400030502286930560032685EFE0CFE495BF93066D
S31540003060D7FB93F6F60F0546636DD60E0329850208
S31540003070630E09000327090019E7D8548326C900BF
S315400030803697D8D421A0E146E309D7FE03C7070007
S31540003090930630046308D70093064004630CD706B2
S315400030A0014405BF83C61700130790040146639584
S315400030B0E6008507DCC40546D84491468347170099
S315400030C09387F7FC93F7F70FE3ECF6FC93860186BC
S315400030D00907B697D8C483C9070001C62685EFF00D
S315400030E06FCB268503A98402EFE0CFD92A844DD938
S315400030F0E30809FA9387F9FF93F7F70F1147E3615E
S31540003100F7FA232205009D471CC0232434012326B9
S315400031102401C1B503C717009546130707FD13776A
S31540003120F70FE3EFE6F6B76604400A07938646C113
S3154000313036971843028789498907DCC42685EFE01C
S315400031406FD42A8431DDE30D09F423220500A1471B
S3154000315065BF8D49D5B79149C5B79549F1BF8549F1
S31540003160E1BF9306C0046317D70285075CC5EFE04D
S31540003170BF8D2A8411E901442285F2406244D2443B
S315400031804249B249056182802685EFE03FAAE312B3
S3154000319005E4D5B793065005E31FD7FC03C71700D0
S315400031A09306C006630FD70293064007E315D7FC84
S315400031B09386170054C583C61700E393E6EE890746
S315400031C05CC5EFE0CFFF2A89E34C05EC2685EFE0AE
S315400031D06FCB2A8439CD930770041CC12324250163
S315400031E089A89386170054C583C61700E39AE6EA72
S315400031F089075CC5553CAA89E30405EADC44130704
S31540003200500483C60700E39DE6E88507DCC42685AF
S31540003210EFE0EFFA2A89E34505E82685EFE08FC619
S315400032202A8401C9930750041CC12324350123264F
S315400032302501A2852685EFE0AFD3E31C05D88DB5E1
S315400032405C455D71A2C486C6A6C2CAC04EDE52DCCB
S3154000325056DA5AD85ED662D466D26AD003C7070019
S31540003260930630052A846308D72663E7E602930669
S31540003270E0046302D70A22850D3B5C44AA8403C757
S315400032800700930790046319F71CA6852285EFE093
S315400032902FCE6316052679A093065005630AD722DA
S315400032A09306A005E319D7FC85075CC581457924BB
S315400032B0AA842DC95C441307500483C60700639350
S315400032C0E6061387170058C403C71700930630074E
S315400032D06313D71A89075CC42285EFE03F9539C14D
S315400032E0B76504403946938505572285EFE08FC080
S315400032F098408D47631AF700DC44130790029443C5
S315400033006394E60023A40700AA862686894522857B
S31540003310EFE04FB97DAA85075CC505466C083D348C
S31540003320AA8919E181440DAA81452285EFE0CFC0E3
S31540003330B70A08102A8A0149130C4004130B50049B
S31540003340930B3005F14C130D9004938AFA3F5C447D
S3154000335083C4070081E423A00900E9B7639F84037F
S3154000336083C7170013074005228593F7F70D63942B
S31540003370E702EFF02FA2AA86631709045C4483C7CD
S31540003380070063826709B685228536C6EFE04FBEE1
S31540003390B24635E9C9B71139F9BF138704FD13772A
S315400033A0F70F63F4EC021387F4F91377F70FE5464A
S315400033B063F6E60013075005639EE4022285F53660
S315400033C0AA8663060902854531A833D7EA00058BEC
S315400033D075F7639CA403E30009F82285EFF0EFF943
S315400033E0AA8691454A862285EFE0CFABAA86E39727
S315400033F074F911A8E39F74FD85452285EFE09FA3EC
S31540003400AA86E31209FC368999B7130740056396E5
S31540003410E4002285EFE04FDFB9BF638C64011307F8
S31540003420D004E39AE4F2E30809F285075CC4CA864D
S31540003430D9BF23A02901E30709EE63060A007247B4
S3154000344052CE2324EA0083C6070013075004E39BA9
S31540003450E6ECF24485075CC4B64026442685064918
S315400034609644F259625AD25A425BB25B225C925CF3
S31540003470025D6161828093064006FD59631AD7005A
S3154000348089075CC42285EFE08FD3AA89E34C05E81F
S3154000349022857D332A8915E1FD574A85E38AF9E479
S315400034A02285EFE02F9EE30505E4930760041CC1E7
S315400034B0232635012324250125BD1C41130750042D
S315400034C0F59BE38BE7FC2285EFE04FF671F599BD5E
S315400034D0E93CAA8451B783C61700130740076387A0
S315400034E0E6028145EFE01F95AA8485475844834606
S315400034F0070013079004E391E6F6E38807D8228590
S31540003500EFF0AFE7AA862686914511B58907B765DC
S3154000351004405CC50D4693850558EFE0AF9D2AC62D
S31540003520228561343246AA8685452285EFE08F970B
S315400035305C54AA848D075CD481474DBF5C45397184
S3154000354022DC06DE26DA4AD84ED652D456D25AD095
S315400035505ECE62CC03C70700930670042A846306D6
S31540003560D70093064005631BD7345854930647014A
S3154000357054D403C60700930640056316D6029386C5
S31540003580170054C483C61700A5E68144F25062541E
S3154000359026854259D254B259225A925A025BF24B6C
S315400035A0624C2161828013077004E310E6FE1387A4
S315400035B0170058C403C7170069DB1387270058C490
S315400035C003C717006304D72863E0E61C930710047B
S315400035D06307F72693072005E319F7FA22858D310D
S315400035E02AC62285EFE00FBBAA863246D94561A09E
S315400035F09386270054C483C7170093063005638912
S31540003600D70E63E6F604130780046383E716636107
S31540003610F702130730046380E71213076004E3964A
S31540003620E7F62285EFE01FF781462A86B945A1A035
S31540003630130790046387E70A1307A004E397E7F4A8
S315400036402285EFE03FF581462A86C9452DA093069F
S3154000365070056385D71263EEF602638BC706930641
S315400036606005E394D7F23D0758D42285EFE09FF2F8
S3154000367081462A86A54522856254F250D254425943
S31540003680B259225A925A025BF24B624C21616FE068
S315400036906F81130780066384E70613076007638E0E
S315400036A0E70613073006E392E7EE81452285EFE011
S315400036B02FC9E30C05EC81452285EFE06FC8E30690
S315400036C005EC814522859D3D81462A86C54565B7DF
S315400036D0290758D42285EFE0FFEB81462A86A94583
S315400036E059BF2285EFE01FEB81462A86B14561B777
S315400036F02285EFE03FEA81462A86B545ADBF930570
S3154000370080062285EFE0CFC3E30105E881452285A7
S31540003710353581462A86BD45B9BF93056007228562
S31540003720EFE00FC2E30305E681452285013D814670
S315400037302A86C14589B72285EFE0DFE5AA841305CD
S31540003740C400EFE0EF9BE34205E45C441307F00559
S3154000375083C60700E39BE6E285075CC42285EFE06B
S315400037607FE35C54A6862A8695075CD4AD4521B78F
S315400037702285F93481462A86D145F5BD2285C9344C
S3154000378081462A86D545C5BD930760056303F70A7A
S3154000379093072007E31BF7DE1305C400EFE04F96BF
S315400037A08547E3D4A7DE5C4403C70700E30F07DC85
S315400037B09384170044C403C707009307F005E31634
S315400037C0F7DC1309F5FF014C130A4002930A300552
S315400037D0130B0004930BF00583C70400E38707DA55
S315400037E06398470B83C41400638E5409638F74092E
S315400037F0E39D44D92285EFD0FFE801C5232065012A
S3154000380004C544447919890444C4E30005D8630BCC
S315400038100C00AA8662869305F0032285EFD09FE8C6
S31540003820E30505D6634E200581462A869305E003C7
S3154000383099B52285313481462A86CD452DBD8145AF
S315400038402285ED3981462A86DD4535B503C72700F1
S315400038508145228505C31387370058C403C727000F
S315400038609307E0066318F700D13981462A86930507
S31540003870900411B5E13181462A8693058004E5BB63
S315400038802A8C99BF9304F002B5B79304E0029DB722
S315400038908149B387340183C7070091C763854701D0
S315400038A08509E3C829FFA6854E862285EFD09FE489
S315400038B0444433093941CE9444C481BF2E894932A8
S315400038C0AA84E30405CC630509001C44858BA1CF7B
S315400038D05C4483C70700E38B07CA13075004E3879A
S315400038E0E7CA2687130600029306C004854571453C
S315400038F009481C43636AF60463F0A706638007071A
S315400039009146639FD7041C479D462147054689CB70
S315400039108C436369B70463F5D508FD156370B60833
S315400039208145A9A0844480402285EFD09FD37DF96C
S315400039308947E31DF4C4C0440840EFD09FD2E30753
S3154000394005C41C44DCC4C5BF6388D70063EAD700FE
S31540003950938727FB63E6F500184711A0584751FBAC
S31540003960814539A09385C5FC93B5150093C51500CF
S315400039702285EFF00FD9AA86E30905C0631D090029
S31540003980984089476319F7001841930790026314DA
S31540003990F7002324050026868D45F1B9DC4785BF0F
S315400039A08545E9B719CA5842854763C8E700832762
S315400039B0C5119306004063D6F6008547232CF510C3
S315400039C08280357122CD26CB4AC94EC706CF52C515
S315400039D056C35AC1DEDEE2DCE6DAEAD8EED60507A1
S315400039E058C28507232EF5108327C51283298511D2
S315400039F02E890C0832C83ECA2326B512B2842A84C0
S31540003A00639309041C421307F0046362F71AB7660E
S31540003A100440139727009386C6C2369718430287F9
S31540003A2083298600137949005046CE85630F0940A5
S31540003A303389C9000D4B930CF005930B5005254C6B
S31540003A40954A63EC2903D247FA404A492326F412A1
S31540003A50DC40BA492A4AFD17DCC08327C411DA4440
S31540003A609A4AFD17232EF4106A440A4BF65B665CAD
S31540003A70D65C465DB65D0D618280B307394183C52C
S31540003A8009006351FB02639F950183C71900639B3D
S31540003A90970183C7290063977701138A39008147C5
S31540003AA063672A012285EFD05FD94E8A99A80347DA
S31540003AB00A00930607FD13F6F60F6367CC003687B8
S31540003AC09207BA97050AE9BF9306F7FB93F6F60FF6
S31540003AD063E5DA00130797FCE5B79306F7F993F623
S31540003AE0F60F63E5DA00130797FAD9BFE31C97FB95
S31540003AF01307F00FE368F7FA93F5F70F2285EFD037
S31540003B00DFD393091A0035BF1046CA85613DB765B4
S31540003B100440938545582285EFD05FDAD044CA8564
S31540003B20228549356F00503B1046CA85A53D93779F
S31540003B304900A9EBB76504409385C5582285EFD067
S31540003B40FFD783A9C4009307600403A7090063183D
S31540003B50F702B7650440938505592285EFD01FD6F5
S31540003B6083A5C90022858505EFD03FD7B7650440B8
S31540003B709385055A2285EFD07FD483A989004E8646
S31540003B80CA8595A99305E0022285EFD01FCB55BF84
S31540003B9083298600130B0102832B4511DA8A232AD7
S31540003BA00510014A114D638409006316AA01854731
S31540003BB0232CF41049BD83274411832C041103ACF4
S31540003BC0090023A0FA00232A541123A23A0123A470
S31540003BD00A0023A69A016285EFD0BFA8050AC10A4A
S31540003BE0E306054C83A989007DBF83A98900E3804C
S31540003BF009FC6F00104DE30CAAFB138C0AFF568597
S31540003C004146E285EF60C02023AA3AFF23AC0AFE74
S31540003C1023A08A01232A541123AE9AFF050A83A9B9
S31540003C208900C10A6F00704A83278AFF81EF930596
S31540003C3000022285EFD07FC003264AFFCA8522852F
S31540003C40EF00504D411A6F00304C032A851423244F
S31540003C50C414832A451193774900232A05108329E2
S31540003C608600B9C383A70900A1E303A7C900994702
S31540003C70631CF70203A58900B7650440194693857E
S31540003C80455AEF70704E0DE1D044CA852285193BE6
S31540003C90B76504409385C55A2285EFD03FC2232A93
S31540003CA054112324441545B34E86CA852285DD39F1
S31540003CB0034744109307C0036317F70093050002B8
S31540003CC02285EFD09FB79305C0032285EFD0FFB67C
S31540003CD0D044CA852285F931034744109307E0034F
S31540003CE06317F700930500022285EFD01FB59305B1
S31540003CF0E0032285EFD07FB45DB78327051291CFCD
S31540003D00B76504409385055B1546EFD09FB68C4456
S31540003D1085052285EFD07FBC3DB393058600EFE055
S31540003D206F822A86E30505E818419307F002631B74
S31540003D30F7008325441263C70500EFD0FFF52A86B6
S31540003D40E30705E683290411CA85228583A709006E
S31540003D502328F410813923283411F5B19305E0075F
S31540003D60EFD0BFADD04429BDB76504409385855B90
S31540003D702285EFD0BFB411A2B76504409385455C58
S31540003D80C5BFB76504409385055DEFD03FB390440A
S31540003D90CA8522850139B76504409385C55E22856B
S31540003DA0EFD0DFB1C1B7B76504409385455FC9B76A
S31540003DB0B76504409385456065BFB7650440938504
S31540003DC085617DB7B76504409385C56255B7B765CC
S31540003DD004409385056369BFB76504409385456490
S31540003DE041BFB76504409385056659B7B76504403A
S31540003DF093850567B5BFB7650440938545688DBF14
S31540003E00B76504409385C569A5B7B76504409385F2
S31540003E10856BEFD0BFAAD044CA8522856136B76587
S31540003E2004409385056BA9B7B76504409385056D36
S31540003E3081B7B76504409385856E1DBFB76504405D
S31540003E409385456E35B750468C442285EFD07FA288
S31540003E50DDBE03274511094609E7014AA689014601
S31540003E6039AA032A8700631C0A0054439442938567
S31540003E7076FEE365B6FE6394D700904411B31843CB
S31540003E80E1BF032A05128329860063180A0C03A79B
S31540003E90090095476314F70C032745130146634F02
S31540003EA0E60483278413E354F7D083270413931639
S31540003EB03700032604110507B697232AE41223A0E8
S31540003EC03701910731E623A00700938589002285B3
S31540003ED0EFD05FE7AA8911CD18419307F002631F1F
S31540003EE0F7068325441263CB0506EFD0FFDAAA898D
S31540003EF035E5E30E0ACA2328541155B9832704131E
S31540003F0093163600BE969C426388F902050641BF69
S31540003F108326041403274414E3DBE6C80327C413AB
S31540003F209395360085062320D41454422E9754C3C5
S31540003F3098C31042BA8779B7AE879843E387E9F8C2
S31540003F406394E400E393B7F8DC43E5FBDC42832A61
S31540003F500411054A2328F4108DBF014A83A709009E
S31540003F60130730020146638CE70098406389E700F7
S31540003F7013074002E394E7EE03A68900A689832748
S31540003F8044114ED202D43ED01C10232AF41083276B
S31540003F9004113ED619E203A68900CA852285193442
S31540003FA0A25791E74E86CA852285EF00B016825702
S31540003FB0232AF410E3090AA82328541169B4137973
S31540003FC049001C4663150900D0438C43BDBDD0470C
S31540003FD08C47A5BD9379090263890900832645115B
S31540003FE031069375F9F9EF00F02F904429CE937579
S31540003FF0F9F96385090022857532B1B493770904CE
S315400040008DEB83274411228526D23ED01C10232ACD
S31540004010F4108327041102D43ED669328257232AEC
S31540004020F410A257E39107A2930500022285EFD030
S31540004030DF80832644111386C4009375F9F92285DF
S31540004040EF00502A09B4E39009A0E5B7832B451148
S3154000405083270511930A01025ED0232A551132D2D5
S3154000406002D43ED65E8A8549894C0D4D854D6308FE
S315400040700A0083274A009C439D1763F9FC02D044FB
S31540004080CA8522850532A257232A7411E39D079AD1
S315400040909209D699C11963983A0583264411138625
S315400040A08400CA852285EF00304571BA83278A008D
S315400040B085EBE36E3DAF139B49009C10338C670143
S315400040C04146D28513050CFCEF509054832744118A
S315400040D0569B232A64112320FCFC2324BA0185091C
S315400040E0032A0A0069B703A64900CA852285EF005C
S315400040F070024DB78327451132D250463ED01C1030
S31540004100232AF51083270511CA8502D43ED659388D
S31540004110A25791E72686CA852285EF00A07F82575F
S31540004120232AF4100DB28317E60099C7B7650440F9
S3154000413093850570EFD08FF89044B7670440938716
S3154000414047EE1846630AF700CA852285A1389305CB
S3154000415000022285EFD06FEE8397C40091CBB765FE
S315400041600440938585702285EFD04FF56FF0BF8D63
S31540004170B765044093850571FDB7104619C2CA85D7
S315400041801530DC44E381078C032704109307D00FD6
S3154000419063F5E7002285EFD00FE7B76504409385C6
S315400041A085712285EFD08FF1D044CA852285832937
S315400041B00410032A8412EFF0EFFE83278412E314DF
S315400041C0FA8883270410E390F988F91923203411DB
S315400041D06FF07F87104683A9C40001C6CA85EFF0F9
S315400041E06FFC9305B0072285EFD02FE54E86CA8532
S315400041F02285EFF02FFB9305D007EDA88329860093
S31540004200B76504409385C57103A98900EFD00FEBCC
S3154000421083A74900654783C707009387F7F993F754
S31540004220F70F6367F700930500022285EFD0EFE0B2
S3154000423083A54900B387250103C7F7FF930700020B
S315400042406313F7007D194A8609B1B7650440938523
S315400042508572B1B6B765044093858572EFD00FE697
S315400042608327841481CB032704113ED23AD01810F9
S315400042702328E410904491471842630FF700CA85FB
S315400042802285EFF02FF283278414638E07FA825734
S315400042902328F4106FF02FFB1046CA852285EFF0D5
S315400042A06FF08327841481C782572328F41003476D
S315400042B044109307C0036317F70093050002228555
S315400042C0EFD0AFD79305C0032285EFD00FD79C44DC
S315400042D0CA852285D047EFF0EFEC03474410930799
S315400042E0E0036317F700930500022285EFD0EFD471
S315400042F09305E0032285EFD04FD46FF0CFF41046FC
S31540004300CA852285EF0050296FF0EFF3032B860014
S31540004310130710038329C60083270B00639FE70614
S3154000432083278B00B76504409385457303AA07002E
S315400043305285EF60006705E503A709008D476310C6
S31540004340F70283A7890005479443639AE60003A7CB
S31540004350C9001443130790026393E600BE8903A77E
S31540004360090093078003631AF70003A68900CA85EC
S315400043702285EF00F0235A8661B7B76504409385DE
S3154000438085735285EF60E06105EDCE852285EFD0DD
S315400043905F9DEFD0EFD0AA85ADBA13073003638790
S315400043A0E706014A5A86CA852285EF00F01E631F3A
S315400043B00A064E86CA852285EF00901F6FF0AFE849
S315400043C0B7650440938505545285EF60805DAA8A9F
S315400043D071F91309F002130AA00483A70900639335
S315400043E0270383A7890099CF9843631F47018C47CA
S315400043F02285EFD01F97EFD0AFCAAA9A83A9C900EA
S31540004400E39D09FCD68531B2850ACDBF930580026E
S31540004410EFD0AFC203268B00CA852285EFF08FD836
S31540004420930590022285EFD04FC161B7B76504402E
S315400044309385C5735285EF60C056630205F4B77520
S3154000444004409385C5A55285EF60A0553DF193057F
S3154000445080022285EFD06FBE4E86CA852285EFF058
S315400044606FD41DA25C469843930780036311F7F40B
S315400044701046084632C6EFD06FF8324615C9CA858F
S315400044802285EF0070119305C0032285EFD0EFBA65
S31540004490DC44CA8522859047EFF0CFD0B76504400B
S315400044A0938505742285EFD06FC1DC44D04775B73C
S315400044B02686CA852285EF007015631605D89C446A
S315400044C01307100394436393E6029C4705479447BA
S315400044D0639EE600DC4303C707009307E0036317C8
S315400044E0F700930580022285EFD02FB59C44B76A2A
S315400044F0044093854A549C478843EF60804ADC4495
S31540004500904719ED18428D47631CF7005C46984367
S31540004510930790026305F7008547232CF410104655
S31540004520CA852285EF00D00883A98400B765044078
S315400045309385457483A7890003AA07005285EF60D7
S31540004540404631E59305B0052285EFD00FAFDC44F8
S31540004550CA852285D047EFF0EFC49305D005228562
S31540004560EFD0AFAD9C44130710039443639DE6CC54
S315400045709C47054794476398E6CCDC4303C707004E
S315400045809307E0036311F7CC93059002A5B3938597
S315400045904A545285EF60E04011C54E86CA85228551
S315400045A0EF00807FDC44CA852285D047EF0050006B
S315400045B055BF5C461307A0039443639AE6DEDC4787
S315400045C098439307B0036314F7DECA85EF001004DF
S315400045D0631B05C6DC4483AA8400B7650440904744
S315400045E0DC479385055532C603AA870083A9C700D1
S315400045F083A78A008843EF60C03A32461DE5CA85E4
S315400046002285EF00E07A5686CA852285EF00C0787B
S31540004610CA8522855286EF00A079B7650440938506
S3154000462085742285EFD08FA969B3B7650440938519
S31540004630C574228532C6EFD06FA832461C4691CB50
S31540004640CA852285EF00C076930500022285EFD009
S31540004650CF9E5286CA852285EFF0CFB4E39B09D41C
S315400046606FF06FBE1846930670021043631BD61058
S31540004670184783290701638809001947637137077B
S315400046801D476380E90C930580022285EFD0EF9A9F
S315400046909044CA852285EFF0EFB0930590022285BB
S315400046A0EFD0AF9998409307D0036317F70093056F
S315400046B0D0022285EFD06F98A1476397F900930502
S315400046C0B0052285EFD06F97D044CA852285EFF09A
S315400046D06FADA1476399F9B69305D00521B9D84482
S315400046E0184355F31307D0036396E7009305D002AA
S315400046F0EFD0AF94D044CA852285EFF0AFAAF9191E
S31540004700914763E237B5B76704409387C7D68A09AE
S31540004710BE9983A70900828793055007E1BE93059A
S31540004720C006C9BEB7650440938545752DBCB765BF
S3154000473004409385857505BCB76504409385C5756A
S315400047401DB4D8441443A1F250478546E31DD6F222
S315400047509306C003E399D7F21C471307000383C7A8
S315400047600700638BE70013071003E39EE7F0B76586
S31540004770044093858576C5BAB7650440938505762A
S31540004780DDB2814909B70C466FF0AFD8B765044032
S31540004790938505776FF0CFDD1046CA85EFF08FA081
S315400047A06FF04FDC83458600B1B6B765044093850C
S315400047B00578EFD0AF9090444DB10C46EFD06FDA0C
S315400047C083AA840011E9CA8556862285D523B76512
S315400047D004409385C57841BAEFD08F8C2A8A130B53
S315400047E0F5FFB76B044063D049A72322341356869E
S315400047F0CA852285EFF00F9B63D7690193858B713C
S315400048002285EFD0AF8B8509F9BF03298600631750
S315400048100900B765044093850579B1B2B765044090
S3154000482093858579EFD08F89CA852285EFD0EF8A27
S31540004830D9B2B76504409385057A6FF06FD3B765F3
S3154000484004409385057C6FF0AFD2B76504409385ED
S31540004850057EEFD0AF86832704129044CA8585072C
S315400048602320F4122285EFF0EF9383270412B765D5
S3154000487004409385C57EFD172320F4122285EFD090
S31540004880EF83CC44850555B7B76504409385057FCE
S31540004890EFD0CF828C44FDB71046CA85EFF08F909B
S315400048A0B7750440938505806FF0EFA6894763147A
S315400048B0FC0283A9C9009307600403A709006306A5
S315400048C0F7B2931A4A00DA9A114D03A50900EFC0D0
S315400048D05FD9631205B203A7090091476317F70032
S315400048E03C0866CC2328F4104ECED044CA85228597
S315400048F0EFF04F8B03A7090091476315F700E24796
S315400049002328F410120A5A9A63104BB3232A7411BF
S315400049106FF06F931C42411122C426C24AC006C69C
S31540004920130710022A842E89B284638AE7126361D0
S31540004930F7067147638AE70C6367F7026547638545
S31540004940E70C6367F7000D476386E718268629AAB2
S3154000495069476387E70C6D47E39AE7FEB7750440FE
S315400049609385458275A07947E38AE7FE63EAE70ABD
S315400049707D47638AE71013070002E399E7FC930536
S315400049800002EFC09FEBB77504409385458549A06B
S31540004990130760026387E7106365F7021307300267
S315400049A06387E70E63E5E70C13074002E38DE7FCF8
S315400049B013075002E39CE7F8B77504409385858555
S315400049C089A81307C0046382E7066362F7021307E8
S315400049D0B002638DE70C1307D002E399E7F6B7758B
S315400049E0044093854587EFC07FED904495A013071B
S315400049F0E0046381E7041307F004E399E7F4B7752D
S31540004A0004409385C5841DA8B77504409385C58029
S31540004A1022852244B2409244024941016FC01FEAB6
S31540004A20B775044093858581E5B7B775044093858E
S31540004A30C582C5B7B775044093850584EFC01FE8A6
S31540004A40DC4485CF930580022285EFC01FDFD0442A
S31540004A50CA852285EFE01FF5930590021DA89305B0
S31540004A600002EFC09FDDD044CA852285ADA013F970
S31540004A7045009305A002630F0900B24022449244C8
S31540004A8002494101828093050002EFC01FDB930576
S31540004A90600222852244B2409244024941016FC0DD
S31540004AA0DFD9B775044093854586A5B703474510BA
S31540004AB0930780026306F70093050002EFC0FFD715
S31540004AC09044CA852285EFE0FFEDB7750440938593
S31540004AD005873DBF10462244B240924402494101F7
S31540004AE06FE05FEC01114AC852C43689328A368774
S31540004AF00566B736040022CC26CA2A84AE8406CE82
S31540004B004EC656C2C945054593867610130606E03D
S31540004B1019E3814999A81C47EDFF5C439C439D17C7
S31540004B2063EAF500B317F50033F8D700631E0800B3
S31540004B30F18F99E31843E9BF834744101307800276
S31540004B4093F7D70F638DE70003474410930700029E
S31540004B506307F700930500022285EFC01FCE930539
S31540004B6080022285EFC07FCD8549832A4411814644
S31540004B70232A04104A86A685228589286387090048
S31540004B80930590022285EFC05FCB93058002228574
S31540004B90EFC0BFCA03260A0009C6A6852285EFE0F4
S31540004BA07FE0228593059002EFC03FC94A86A685DD
S31540004BB0228585462128F240232A54116244D24454
S31540004BC04249B249224A924A05618280397122DCC1
S31540004BD026DA4AD856D25AD05ECE62CC66CA06DEAD
S31540004BE04ED652D42A842E89B284B68A054B930B6C
S31540004BF09002130CA002894CB9C083278411A1E30B
S31540004C009C4481EFD040032A0600639A0A005285ED
S31540004C1032C6EFC01FA5324619C18440F1BFDC44FD
S31540004C2023A46401832904112328F41063167A030C
S31540004C3094403106CA852285753523283411F250B1
S31540004C406254D2544259B259225A925A025BF24B9A
S31540004C50624CD24C2161828063188A0194402106BD
S31540004C60CA8522855128D1BF63129A091046032A64
S31540004C704411CA85232A04102285EFE0BFD29377D8
S31540004C804900232A4411A9EFB76504409385C558C6
S31540004C902285EFC0BFC2DC40C447930760049840FA
S31540004CA06316F702B7650440938505592285EFC020
S31540004CB0FFC0CC4422858505EFC03FC2B76504409E
S31540004CC09385055A2285EFC07FBF84448840EFC054
S31540004CD05F9965FD2686CA852285EFE0BFCCB1BFC8
S31540004CE09305E0022285EFC05FB575B7CA85228578
S31540004CF015312328341115B7797122D44ECE52CCB2
S31540004D0006D626D24AD02A84AE89328A95EE9305B3
S31540004D1000022285EFC07FB29305B0052285EFC021
S31540004D20DFB103260A0009C6CE852285EFE09FC77C
S31540004D3022852254B25092540259F249624A93054E
S31540004D40D00545616FC07FAF3686B687844785E418
S31540004D50DC43014998439307A0026302F702B76513
S31540004D60044093858578228532C6EFC03FB5054914
S31540004D708544324629A09C43F1FB0149854481463E
S31540004D80CE852285A13563070900930590022285C9
S31540004D90EFC0BFAAADFC49B714421307100363978F
S31540004DA0E6001C469047CC436FC0BFAC6FE09FBF48
S31540004DB01C42011122CC26CA4AC806CE0544AA8402
S31540004DC02E896370F40213070003638CE7001947CA
S31540004DD06389E7009305800232C6EFC01FA63246BC
S31540004DE00144CA852685EFE0FFBB19E86244F240DC
S31540004DF042492685D2449305900205616FC0FFA3C0
S31540004E00F2406244D2444249056182801C461307FF
S31540004E1060069C479C4383C607006393E61058464A
S31540004E2001114AC80329C7004EC652C48326090049
S31540004E308329870006CE22CC26CA56C21307B00362
S31540004E40014A6396E600032AC900032989007D5773
S31540004E50832A45122322E51283C71700130720052C
S31540004E60AE842A846384E7086362F7021307C004AA
S31540004E70638EE70623225413F2406244D2444249E9
S31540004E80B249224A924A0545056182801307C00607
S31540004E90638AE70213072007E39EE7FC9305800237
S31540004EA0EFC0BF994A86A68522851937A6852285F1
S31540004EB04E86DD35B7750440938585882285EFC0DB
S31540004EC0FF9F4DBFB775044093850588EFC01F9F70
S31540004ED04E86A6852285C9354A86A6852285C93D40
S31540004EE0930590022285EFC05F9569B793058002CE
S31540004EF02285EFC09F944A86A6852285553D4E86DB
S31540004F00A6852285513DB76504409385C57822859F
S31540004F10EFC0DF9A4E86A6852285BD3D528675BF77
S31540004F200145828045712324811C2322911C232E16
S31540004F30311B232C411B2326111C2320211D232AF0
S31540004F40511B2328611B2326711B800B834A0500B6
S31540004F509307F005AA842E8AB2896399FA0003471B
S31540004F6015009307A00505496302F706B765044097
S31540004F7021469385C5512685EF60101F014939E5C5
S31540004F8083C784001307E002638AE7001307F0052E
S31540004F906386E70013074002639AE70283C79400DB
S31540004FA0130740046387E700130790040149639F92
S31540004FB0E70083C6A4001307F00501496398E6009D
S31540004FC01307900409496383E7000D492685EF607E
S31540004FD09018B387A4002328F4E4C547232AF4E4B1
S31540004FE0931715002322F4E62328A4E693175500C9
S31540004FF00A053D053301F14041998A873301A140B5
S31540005000232EF4E4232694E4232C94E4232004E67C
S31540005010232604E6232A04E6232C04E6232E04E66C
S31540005020232004E8232424E685476304F910631407
S31540005030091E1305C4E4EFD0EFD52A89832784E5FA
S31540005040014583C70700E1E33E85630E090A4A86A8
S315400050509305C4FB130584FC232834F9232204F862
S31540005060230404F8232A04F8232C04F8232404FAFE
S31540005070232604FA232644F9232E04F8232004FA8F
S31540005080232204FA232804FA232A04FA232C04FAB6
S31540005090232E04FA232004FC232204FC232404FCAC
S315400050A0EFC04FEF8324C4FB832584FC8A89268581
S315400050B0EF0010402324A4FC232604FCA687634368
S315400050C0900085478E07BD07C19B3301F1408A8713
S315400050D06343A00005450E053D0541993301A140B6
S315400050E04A86C545130544E8232AF4FA232024FCBE
S315400050F0EFE05F8B130544E84E81EFC0CFF0032508
S31540005100C4F913351500130104E38320C11C03249D
S31540005110811C8324411C0329011C8329C11B032AAA
S31540005120811B832A411B032B011B832BC11A7961E7
S3154000513082809307F0056384FA00014901B703C7EB
S31540005140140093871400232CF4E49307A005E31678
S31540005150F7FE890485451305C4E4232C94E4EFE067
S31540005160EFBD832744E52A89858BE38907EC930ABB
S31540005170E002654B930BF005A544832584E583C780
S315400051800500E39D57EB83C715001387F7F913779F
S31540005190F70F637CEB00638A7701938707FD93F7EC
S315400051A0F70FE3EDF4E82E8629A81386250003477A
S315400051B006009307F7F993F7F70F6379FB02630746
S315400051C077038347060063855703232CC4E41305FE
S315400051D0C4E40D8EEFC00FD2AA864A869305D0044A
S315400051E01305C4E4EFC00FCC2A8941BF0506C1B7F9
S315400051F083471600938707FD93F7F70FE3E7F4FC21
S31540005200090683470600938707FD93F7F70FE3EAFE
S31540005210F4FA0506FDB79385B400232CB4E4894718
S31540005220930A30046304F900930A400403C7B400A8
S315400052309307F0056318F70003C7C4009307A0055A
S31540005240630FF7022E85232EB4E2EF60C0708325EC
S31540005250C4E32A861305C4E4EFC0CFC92A86814633
S31540005260D6851305C4E4EFC0EFC3832484E52A89B9
S315400052702685EF60406E2695232CA4E4C1B3B50481
S3154000528081451305C4E4232C94E4EFE02FABF9B732
S31540005290797106D622D426D24AD04ECE52CC19EDBA
S315400052A099EA01442285B250225492540259F24955
S315400052B0624A45618280F5579CC2E5B791C16DD27D
S315400052C0AE89B725004032899385A5CB0A86B68438
S315400052D002C002C202C402C6B131024401E92285BB
S315400052E0EF404057DDDCF9579CC065BFB247054AE1
S315400052F091E3224A01E8D5D48547E316FAFEFD57E5
S315400053009CC04DB7639709006304090223204901F5
S3154000531005A02285EF60206483270900637EF5009F
S31540005320A2854E85EF50007A2285EF40A0524E84EA
S31540005330B5D823A00400BDB74E85EF40A051F9B7BC
S3154000534009CDF55781CD411106C6E93E814711E1A8
S31540005350F957B2403E8541018280F5573E858280AD
S31540005360C1676376F5029307F00FB3B7A7008E07C0
S31540005370130700021D8FB357F50037A504401305E8
S3154000538085A6AA9703C507003305A740828037073D
S315400053900001C147E36EE5FCE147D9BF797126D2EA
S315400053A05AC806D622D44AD04ECE52CC56CA5EC62B
S315400053B062C466C22A8BAE846390062A37A904402B
S315400053C03284AA89130989A663F3C50EC167AE8ADA
S315400053D06378F60C9306F00FB3B6C6008E06B35745
S315400053E0D6003E9903470900BA9613070002158F67
S315400053F019CBB394E400B356DB003314E600B3EAAA
S315400054009600B319EB00135B0401DA855685EF006D
S3154000541070142A89DA85931B04015685EF00D01053
S3154000542093DB0B01AA84AA855E85EF0070084209CA
S3154000543013D709013367E900268A637CA7002297C0
S31540005440138AF4FF636787006375A700138AE4FF36
S315400054502297B304A740DA852685EF00B00F2A8944
S31540005460DA852685EF00500CC209AA84AA8542092E
S315400054705E8593D90901EF00B003B36939012686E9
S3154000548063FBA900A2991386F4FF63E6890063F4DF
S31540005490A9001386E4FF93170A01D18F014AF1A8A8
S315400054A0B7070001C146E36CF6F2E1460DBF368A06
S315400054B011E681450545EF0030072A84C167637DC3
S315400054C0F40C9307F00F63F38700214AB357440166
S315400054D03E998346090013060002D296158E61E670
S315400054E0818C054A135B0401DA852685EF00900618
S315400054F02A89DA852685931B0401EF00F00293DBA7
S315400055000B01AA84AA855E85EF00807A420913D7EB
S3154000551009013367E900A68A637CA7002297938A2C
S31540005520F4FF636787006375A700938AE4FF2297B9
S31540005530B304A740DA852685EF00D0012A89DA85AB
S315400055402685EF00607EC209AA84AA8542095E8547
S3154000555093D90901EF00C075B3693901268663FB0B
S31540005560A900A2991386F4FF63E6890063F4A900B3
S315400055701386E4FF93970A01D18F3E85D285B250B8
S31540005580225492540259F249624AD24A424BB24B91
S31540005590224C924C45618280B7070001414AE3673D
S315400055A0F4F2614A25B73314C40033DAD400B31990
S315400055B0CB00B356DB00135B0401B394C400DA8519
S315400055C05285B3EA9600EF00E0782A89DA8552855B
S315400055D0931B0401EF00407593DB0B01AA84AA8557
S315400055E05E85F925420913D70A013367E900268A01
S315400055F0637CA7002297138AF4FF6367870063756D
S31540005600A700138AE4FF2297B304A740DA852685CC
S31540005610EF0040742A89DA852685EF00E070AA8477
S31540005620AA855E85712593960A014209C182B367B0
S31540005630D900268763FCA700A2971387F4FF63E788
S31540005640870063F5A7001387E4FFA297420AB38455
S31540005650A740336AEA0079B563E5D516C16763FFAB
S31540005660F6029305F00F33B5D5000E0537A7044073
S31540005670B3D7A600130787A6BA9783C50700130AB0
S315400056800002AA95330ABA4063110A028547E3E647
S3154000569096EE3336CB0093471600C5B5B7070001E3
S315400056A04145E3E5F6FC6145D1B7B35AB600B3963A
S315400056B04601B3EADA0033D9B400B3974401B3558F
S315400056C0BB0093DB0A01B3E4F5004A85DE85B319D6
S315400056D0460149252A84DE854A85139C0A01A92567
S315400056E0135C0C012A89AA856285D923420413D703
S315400056F00401418FCA8C637CA7005697930CF9FF2F
S31540005700636757016375A700930CE9FF5697330902
S31540005710A740DE854A853D2D2A84DE854A85292592
S315400057202A89AA8562856923939704014204C18325
S315400057303367F4004A86637CA70056971306F9FF41
S31540005740636757016375A7001306E9FF569793975A
S315400057500C01416ED18F1308FEFF33F3070133F876
S315400057600901098F93DE070193D909011A85C2857C
S315400057708123AA88CE851A85252B2A83C2857685DC
S31540005780052B2A88CE857685252393D60801429314
S315400057909A9663F30601729513D6060132956360B5
S315400057A0A702E31DA7CE41677D17F98EC206B3F85F
S315400057B0E80033164B01C696014AE370D6DCFD1766
S315400057C0F1B9014A814755BB797122D426D24ECED2
S315400057D05AC806D64AD052CC56CA5EC662C466C2BB
S315400057E06AC02A8BAE892A84AE84639F061AB7AAFA
S315400057F004403289368A938A8AA663FFC50CC167FC
S315400058006375F60C9307F00F63F3C700214AB3574D
S315400058104601BE9A03C70A00130500025297330A8F
S31540005820E540630C0A00B39549013357EB00331941
S315400058304601B364B70033144B01935A0901D68528
S315400058402685092BAA89D685131B09012685E929B0
S31540005850135B0B01AA855A85A129C20993570401F6
S31540005860B3E7F90063F8A700CA9763E5270163F336
S31540005870A700CA97B384A740D6852685E129AA8979
S31540005880D685268555214204AA85C2095A85418076
S31540005890052133E489006378A4004A9463652401B2
S315400058A06373A4004A94098C335544018145B25030
S315400058B0225492540259F249624AD24A424BB24B5E
S315400058C0224C924C024D45618280B7070001414A05
S315400058D0E36FF6F2614A25BF09E681450545A921F0
S315400058E02A89C167637BF90A9307F00F63F327019F
S315400058F0214AB3574901BE9A03C70A00130500025D
S31540005900B38429415297330AE540E3080AF2331932
S315400059104901B3DAE900B39549013357EB00935493
S315400059200901B36BB7005685A6852D21AA89A685A0
S3154000593033144B015685131B0901FD26135B0B01DE
S31540005940AA855A85B526C20993D70B01B3E7F90054
S3154000595063F8A700CA9763E5270163F3A700CA97D0
S31540005960B38AA740A6855685F526AA89A685568573
S31540005970652EAA855A852D2E93950B01C209C181A4
S31540005980B3E5B90063F8A500CA9563E5250163F35D
S31540005990A500CA95B384A5404DB5B7070001414A55
S315400059A0E369F9F4614AB1B7E3E3D5F0C16763F659
S315400059B0F604930AF00F33B5DA000E0537A7044014
S315400059C0B3D7A600130787A6BA9783CA07009305DD
S315400059D00002AA9A338A554163180A0263E43601E3
S315400059E0636ACB003304CB40B386D940333B8B004C
S315400059F0B38466412285A6855DBDB7070001414552
S31540005A00E3EEF6FA61455DBFB3964601B3575601DC
S31540005A10B3EBD70033D45901B3954901B3545B0175
S31540005A2013DC0B01CD8C2285E285331D46011D26F4
S31540005A30AA89E2852285939C0B01FD2493DC0C0107
S31540005A402A84AA856685AD24C20913D7040133E7A3
S31540005A50E900331B4B01A289637CA7005E9793093B
S31540005A60F4FF636777016375A7009309E4FF5E97C8
S31540005A703309A740E2854A85F12C2A84E2854A8586
S31540005A806524AA852A8966852524939504014204BE
S31540005A90C181C18DCA8763FCA500DE959307F9FFD6
S31540005AA063E7750163F5A5009307E9FFDE95416E4F
S31540005AB0C209B3E9F9001308FEFF33F70901337849
S31540005AC00D01B384A54093D9090193580D013A8538
S31540005AD0C285F92AAA87C6853A85D92A2A83C285E4
S31540005AE04E85F9222A88C6854E85D92213D70701C5
S31540005AF042931A97637307017295C166FD169355D3
S31540005B000701758F4207F58FAA95BA9763E6B400E9
S31540005B10639BB4006379FB003386A741B3B7C700E4
S31540005B20DE979D8DB287B307FB40333BFB00B385C1
S31540005B30B440B385654133945501B3D747013365C6
S31540005B40F400B3D54501A5B313D74501B7071000F7
S31540005B50FD1713D846012A83AA8E1377F77F1305BC
S31540005B60F07FB3F8B700328FF58FFD811378F87F59
S31540005B70FD82631AA70033EE6800054563140E00E4
S31540005B806305E80082806315A8005D8E05457DFAB1
S31540005B900545E31907FFE397F8FEE395EEFF6388B3
S31540005BA0D5006DF333E568003335A00082800145AA
S31540005BB082805C4503AF050083AF450083A2850024
S31540005BC0CC45216793D607017D1713980701939E0D
S31540005BD0050113D6F701F98E93D7050141118328A4
S31540005BE0050003234500032E85001358080193DE64
S31540005BF00E01F98FFD81639DE60033E76800336748
S31540005C00C70133670701054521E76393D70419A008
S31540005C10639AE7003367FF01336757003367D7015D
S31540005C2005451DE705456395D7026393E803631170
S31540005C30F303631F5E00631DD801630DB60089EB55
S31540005C4033E568003365C501336505013335A0008A
S31540005C50410182800145EDBFB7078000FD1713570C
S31540005C60750133F8A70013D675019356F5011377DE
S31540005C70F70F1305F00FED8F1376F60FFD816315C1
S31540005C80A7000545631408021305F00F6314A60028
S31540005C90054589EF0545631BC7006319F800638610
S31540005CA0B60009E733350001828001458280000055
S31540005CB02A86014593F6150091C2329585810606DE
S31540005CC0F5F9828000004111368306C62A8EAA88DD
S31540005CD0B28601478147014813F51600931E170007
S31540005CE001C93385080133380501BA97C2972A8816
S31540005CF013D7F801858233E7EE008608F1FE89C5A1
S31540005D003285EFF0FFFAAA976307030072859A85FA
S31540005D10EFF01FFAAA97B2404285BE8541018280C4
S31540005D20634E050263C305042E86AA857D5515C2BA
S31540005D3085466378B6006356C00006068606E36C61
S31540005D40B6FE014563E4C500918D558D8582058279
S31540005D50F5FA82808682C93F2E8582823305A0402D
S31540005D6063D70500B305B040C1B7B305B0408682DE
S31540005D70653F3305A0408282868263C7050063493A
S31540005D8005005D372E858282B305B040E35B05FE94
S31540005D903305A040513F3305B040828200000147A1
S31540005DA0814605058347F5FF13F6F707E2073316E5
S31540005DB0D600E187518F9D06E3C507FE98C18280D4
S31540005DC08147014705058346F5FF13F6F607331667
S31540005DD0E600D18F1396860161861D07E34406FED1
S31540005DE07D466369E60093F6060489C6FD563397F9
S31540005DF0E600D98F9CC182800327451293972500E0
S31540005E009316170063D80600AA9503C7051319C34E
S31540005E103E9582803E9508418280797106D622D48D
S31540005E2026D24AD04ECE52CC9307F00F6383F5026A
S31540005E3013F9050793070002AE89B2843684630BD3
S31540005E40F90263EA2701630E0904C147014A630563
S31540005E50F902EF20E058930700046301F904930721
S31540005E6000056300F90493070003E314F9FE032ACF
S31540005E70C51119A0032A8511930700056395F902F8
S31540005E801385340071991C4111051CC0B25022542F
S31540005E9092540259F249624A45618280032A0512A8
S31540005EA0E1BF014AD1BF93F7F9003147E363F7FAFF
S31540005EB037A704408A071307878DBA979C43828782
S31540005EC06C002685E93DB247E9D341476313E900B3
S31540005ED0268AE20993D98941D297E3D809FA9C43A5
S31540005EE06DB76C002685E93DF9BF83C7140003C72B
S31540005EF00400A207D98F13852400F9B783C714007D
S31540005F0003C70400A207D98FC207C187EDB703C7ED
S31540005F10140083C704001385440022075D8F83C79E
S31540005F202400C2075D8F83C73400E207D98F69BF5B
S31540005F3003C7140083C704001385840022075D8FBE
S31540005F4083C72400C2075D8F83C73400E207D98F19
S31540005F50A5BF5D71A2C4CAC052DC56DA5AD85ED615
S31540005F6062D466D26AD06ECE86C6A6C24EDE80089F
S31540005F7037AB0440AA8D2E8CB28A368923AC0620D4
S31540005F80014A930B0004930C0008130D000C130BED
S31540005F90CB9063FD8D0183A74A128329C92213D76B
S31540005FA0F70183A70A11BA9763E3F902130104FBC9
S31540005FB0B640264496440649F259625AD25A425B42
S31540005FC0B25B225C925C025DF24D6161828003C5E8
S31540005FD00D0093841D009377050C639D77018325FF
S31540005FE089231375F503EFF0BFCC4E952326A922DE
S31540005FF0A68D45B7639D97031375F503232AA4FA27
S31540006000930584FB2685613B832584FBAA8403256F
S315400060104923EFF0FFC9832744FB13072004E369B4
S31540006020F7FC8E07CA970547D8C388C3D1B763998B
S31540006030A7011375F5030E054A95232205004DBFAA
S315400060409307F00263EDA72E0A055A951C418287F5
S315400060508345092426869306C4FB56857D3B8327C4
S31540006060C4FBAA842326F92261B703C51D008325F4
S31540006070892393842D00EFF0BFC34E952326A92292
S3154000608085BF83C72D0003C51D0083258923A2072D
S315400060905D8DEFF0FFC14E952326A92293843D00E6
S315400060A081BF03C52D0083C71D0083258923220593
S315400060B05D8D83C73D0093845D00C207C98F03C5CC
S315400060C04D0062055D8DEFF0BFBE4E952326A92299
S315400060D005B7930544FB2685D931930584FB25B73F
S315400060E02685930544FB6539832744FB1307200423
S315400060F0AA84E36FF7EE8E07CA9723A20700CDBDA9
S315400061002685930544FB6139832744FB1307200406
S31540006110AA84E36FF7EC8E07CA971947D8C3C9BD5F
S31540006120930544FB2685A5399305C4FB8D39832702
S3154000613044FB13072004AA84E36CF7EA8E07CA9748
S315400061400947D8C30327C4FB98C35DB5630E0A004D
S31540006150D287032A8A211306C022CA853E85EF309C
S31540006160304B232CA92069B5130101DC9307F100BC
S31540006170C19BD5B7832989211306C0224A85CE857E
S31540006180EF30104923AC49214E8A9DB5930584FBD7
S3154000619026853131832784FB930584FB2320F9220E
S315400061A0FD3E832784FBAA84232EF920854723249A
S315400061B0F9223DBD2685930584FBD536832784FB8E
S315400061C0AA842320F922DDB72685930584FBC13EA8
S315400061D0832784FBAA84232EF92019BD89472322CD
S315400061E099222324F922930584FB26854D3E832458
S315400061F084FBAA94F5BB930544FB26854D3683273D
S3154000620044FB130720046367F7008E07CA970D47C0
S31540006210D8C388C3930584FBD1BF930544FB268529
S31540006220BD3E9305C4FB693EAA848325C4FBC5B322
S31540006230930584FB2685A536832784FB9305C4FBFB
S315400062402320F922B53EAA848325C4FB032549238E
S3154000625085472324F922EFF0BFA5232EA92049BB69
S315400062609305C4FB2685A93EAA8483254923032595
S31540006270C4FBD5B7930544FB26851536930584FBA9
S31540006280393E832584FBAA8403254923EFF05FA288
S31540006290832744FB13072004E36CF7D48E07CA9781
S315400062A0114759B3930544FB2685D53C9305C4FB5A
S315400062B0013EAA848325C4FBC1BF930544FB2685C2
S315400062C0F93C832744FB13072004E365F7F48E0764
S315400062D0CA97154735BFC147232AF4FA1307490819
S315400062E081478546232EF7FE14C391072107E39B7A
S315400062F077FFFDB92685930584FB5534832784FBB8
S31540006300AA8423A6FA12EDB1930544FB2685413CA7
S31540006310930584FB6934AA84832584FB032549239A
S31540006320EFF01F99832744FB13072004E362F7CC61
S315400063308E07CA970547D8C33305A040FDB1EF2065
S31540006340200A397122DC2E844AD8130680242A89F1
S315400063508145228506DE26DA4ED652D456D25AD00A
S315400063605ECE62CC66CA6AC8EF30903A0325091100
S3154000637023260912232A091005E11545F2506254D5
S31540006380D2544259B259225A925A025BF24B624C4B
S31540006390D24C424D2161828083274912930589114F
S315400063A0FD83FD173E95EF1090772A8A79D583278E
S315400063B00912930445002326F4225C419D8C93895F
S315400063C094004E85EF50205903C794000505930766
S315400063D050064E95631BF70203C7A4009307800639
S315400063E06315F70203471500834705009389B400F8
S315400063F022075D8F834725001105C2075D8F8347BE
S31540006400F5FFE207D98F2322F42403C784008D4782
S3154000641063FDE7000347050091476304F7000D4518
S31540006420B1BF83471500E5FF09054C008D3A9247F9
S315400064302C00232CF42269322247AA87232AE422FD
